{
  "address": "0x7EaCAC40f0474F846A4A313Dc668177098B530bE",
  "abi": [
    {
      "anonymous": false,
      "inputs": [
        {
          "indexed": true,
          "internalType": "uint256",
          "name": "listingId",
          "type": "uint256"
        },
        {
          "indexed": true,
          "internalType": "uint256",
          "name": "orderId",
          "type": "uint256"
        },
        {
          "indexed": false,
          "internalType": "address",
          "name": "buyer",
          "type": "address"
        }
      ],
      "name": "BuyOrderSubmitted",
      "type": "event"
    },
    {
      "anonymous": false,
      "inputs": [
        {
          "indexed": true,
          "internalType": "address",
          "name": "previousOwner",
          "type": "address"
        },
        {
          "indexed": true,
          "internalType": "address",
          "name": "newOwner",
          "type": "address"
        }
      ],
      "name": "OwnershipTransferred",
      "type": "event"
    },
    {
      "anonymous": false,
      "inputs": [
        {
          "indexed": true,
          "internalType": "uint256",
          "name": "listingId",
          "type": "uint256"
        },
        {
          "indexed": true,
          "internalType": "address",
          "name": "tokenAddress",
          "type": "address"
        },
        {
          "indexed": false,
          "internalType": "uint256",
          "name": "amount",
          "type": "uint256"
        },
        {
          "indexed": false,
          "internalType": "uint256",
          "name": "price",
          "type": "uint256"
        },
        {
          "indexed": false,
          "internalType": "uint256",
          "name": "priceCurrency",
          "type": "uint256"
        }
      ],
      "name": "SellListed",
      "type": "event"
    },
    {
      "inputs": [],
      "name": "allListings",
      "outputs": [
        {
          "components": [
            {
              "internalType": "address payable",
              "name": "seller",
              "type": "address"
            },
            {
              "internalType": "address",
              "name": "tokenAddress",
              "type": "address"
            },
            {
              "internalType": "uint256",
              "name": "listId",
              "type": "uint256"
            },
            {
              "internalType": "uint256",
              "name": "amount",
              "type": "uint256"
            },
            {
              "internalType": "uint256",
              "name": "locked",
              "type": "uint256"
            },
            {
              "internalType": "uint256",
              "name": "price",
              "type": "uint256"
            },
            {
              "internalType": "uint256",
              "name": "priceCurrency",
              "type": "uint256"
            },
            {
              "internalType": "uint256",
              "name": "time",
              "type": "uint256"
            }
          ],
          "internalType": "struct P2P.SellerList[]",
          "name": "",
          "type": "tuple[]"
        }
      ],
      "stateMutability": "view",
      "type": "function"
    },
    {
      "inputs": [
        {
          "internalType": "uint256",
          "name": "start",
          "type": "uint256"
        },
        {
          "internalType": "uint256",
          "name": "offset",
          "type": "uint256"
        }
      ],
      "name": "allListings",
      "outputs": [
        {
          "components": [
            {
              "internalType": "address payable",
              "name": "seller",
              "type": "address"
            },
            {
              "internalType": "address",
              "name": "tokenAddress",
              "type": "address"
            },
            {
              "internalType": "uint256",
              "name": "listId",
              "type": "uint256"
            },
            {
              "internalType": "uint256",
              "name": "amount",
              "type": "uint256"
            },
            {
              "internalType": "uint256",
              "name": "locked",
              "type": "uint256"
            },
            {
              "internalType": "uint256",
              "name": "price",
              "type": "uint256"
            },
            {
              "internalType": "uint256",
              "name": "priceCurrency",
              "type": "uint256"
            },
            {
              "internalType": "uint256",
              "name": "time",
              "type": "uint256"
            }
          ],
          "internalType": "struct P2P.SellerList[]",
          "name": "",
          "type": "tuple[]"
        }
      ],
      "stateMutability": "view",
      "type": "function"
    },
    {
      "inputs": [
        {
          "internalType": "address",
          "name": "",
          "type": "address"
        },
        {
          "internalType": "uint256",
          "name": "",
          "type": "uint256"
        }
      ],
      "name": "buyRequests",
      "outputs": [
        {
          "internalType": "address payable",
          "name": "buyer",
          "type": "address"
        },
        {
          "internalType": "address payable",
          "name": "seller",
          "type": "address"
        },
        {
          "internalType": "address",
          "name": "tokenAddress",
          "type": "address"
        },
        {
          "internalType": "bool",
          "name": "fulfilled",
          "type": "bool"
        },
        {
          "internalType": "bool",
          "name": "paid",
          "type": "bool"
        },
        {
          "internalType": "bool",
          "name": "cancelled",
          "type": "bool"
        },
        {
          "internalType": "bool",
          "name": "report",
          "type": "bool"
        },
        {
          "internalType": "uint256",
          "name": "amount",
          "type": "uint256"
        },
        {
          "internalType": "uint256",
          "name": "price",
          "type": "uint256"
        },
        {
          "internalType": "uint256",
          "name": "priceCurrency",
          "type": "uint256"
        },
        {
          "internalType": "uint256",
          "name": "orderId",
          "type": "uint256"
        },
        {
          "internalType": "string",
          "name": "buyerName",
          "type": "string"
        },
        {
          "internalType": "string",
          "name": "payOption",
          "type": "string"
        }
      ],
      "stateMutability": "view",
      "type": "function"
    },
    {
      "inputs": [
        {
          "internalType": "uint256",
          "name": "id",
          "type": "uint256"
        },
        {
          "internalType": "uint256",
          "name": "amount",
          "type": "uint256"
        },
        {
          "internalType": "string",
          "name": "_name",
          "type": "string"
        },
        {
          "internalType": "string",
          "name": "payOption",
          "type": "string"
        }
      ],
      "name": "buyToken",
      "outputs": [],
      "stateMutability": "nonpayable",
      "type": "function"
    },
    {
      "inputs": [
        {
          "internalType": "uint256",
          "name": "currency",
          "type": "uint256"
        }
      ],
      "name": "currencyListingCount",
      "outputs": [
        {
          "internalType": "uint256",
          "name": "",
          "type": "uint256"
        }
      ],
      "stateMutability": "view",
      "type": "function"
    },
    {
      "inputs": [
        {
          "internalType": "uint256",
          "name": "currency",
          "type": "uint256"
        },
        {
          "internalType": "uint256",
          "name": "start",
          "type": "uint256"
        },
        {
          "internalType": "uint256",
          "name": "offset",
          "type": "uint256"
        }
      ],
      "name": "currencyListings",
      "outputs": [
        {
          "internalType": "uint256[]",
          "name": "",
          "type": "uint256[]"
        }
      ],
      "stateMutability": "view",
      "type": "function"
    },
    {
      "inputs": [
        {
          "internalType": "uint256",
          "name": "orderId",
          "type": "uint256"
        }
      ],
      "name": "getOrder",
      "outputs": [
        {
          "components": [
            {
              "internalType": "address payable",
              "name": "buyer",
              "type": "address"
            },
            {
              "internalType": "address payable",
              "name": "seller",
              "type": "address"
            },
            {
              "internalType": "address",
              "name": "tokenAddress",
              "type": "address"
            },
            {
              "internalType": "bool",
              "name": "fulfilled",
              "type": "bool"
            },
            {
              "internalType": "bool",
              "name": "paid",
              "type": "bool"
            },
            {
              "internalType": "bool",
              "name": "cancelled",
              "type": "bool"
            },
            {
              "internalType": "bool",
              "name": "report",
              "type": "bool"
            },
            {
              "internalType": "uint256",
              "name": "amount",
              "type": "uint256"
            },
            {
              "internalType": "uint256",
              "name": "price",
              "type": "uint256"
            },
            {
              "internalType": "uint256",
              "name": "priceCurrency",
              "type": "uint256"
            },
            {
              "internalType": "uint256",
              "name": "orderId",
              "type": "uint256"
            },
            {
              "internalType": "string",
              "name": "buyerName",
              "type": "string"
            },
            {
              "internalType": "string",
              "name": "payOption",
              "type": "string"
            }
          ],
          "internalType": "struct P2P.buyRequest",
          "name": "",
          "type": "tuple"
        }
      ],
      "stateMutability": "view",
      "type": "function"
    },
    {
      "inputs": [
        {
          "internalType": "address",
          "name": "seller",
          "type": "address"
        }
      ],
      "name": "getRequests",
      "outputs": [
        {
          "components": [
            {
              "internalType": "address payable",
              "name": "buyer",
              "type": "address"
            },
            {
              "internalType": "address payable",
              "name": "seller",
              "type": "address"
            },
            {
              "internalType": "address",
              "name": "tokenAddress",
              "type": "address"
            },
            {
              "internalType": "bool",
              "name": "fulfilled",
              "type": "bool"
            },
            {
              "internalType": "bool",
              "name": "paid",
              "type": "bool"
            },
            {
              "internalType": "bool",
              "name": "cancelled",
              "type": "bool"
            },
            {
              "internalType": "bool",
              "name": "report",
              "type": "bool"
            },
            {
              "internalType": "uint256",
              "name": "amount",
              "type": "uint256"
            },
            {
              "internalType": "uint256",
              "name": "price",
              "type": "uint256"
            },
            {
              "internalType": "uint256",
              "name": "priceCurrency",
              "type": "uint256"
            },
            {
              "internalType": "uint256",
              "name": "orderId",
              "type": "uint256"
            },
            {
              "internalType": "string",
              "name": "buyerName",
              "type": "string"
            },
            {
              "internalType": "string",
              "name": "payOption",
              "type": "string"
            }
          ],
          "internalType": "struct P2P.buyRequest[]",
          "name": "",
          "type": "tuple[]"
        }
      ],
      "stateMutability": "view",
      "type": "function"
    },
    {
      "inputs": [
        {
          "internalType": "address",
          "name": "user",
          "type": "address"
        }
      ],
      "name": "isRegistered",
      "outputs": [
        {
          "internalType": "bool",
          "name": "registered",
          "type": "bool"
        }
      ],
      "stateMutability": "view",
      "type": "function"
    },
    {
      "inputs": [
        {
          "internalType": "uint256",
          "name": "i",
          "type": "uint256"
        }
      ],
      "name": "listingAt",
      "outputs": [
        {
          "components": [
            {
              "internalType": "address payable",
              "name": "seller",
              "type": "address"
            },
            {
              "internalType": "address",
              "name": "tokenAddress",
              "type": "address"
            },
            {
              "internalType": "uint256",
              "name": "listId",
              "type": "uint256"
            },
            {
              "internalType": "uint256",
              "name": "amount",
              "type": "uint256"
            },
            {
              "internalType": "uint256",
              "name": "locked",
              "type": "uint256"
            },
            {
              "internalType": "uint256",
              "name": "price",
              "type": "uint256"
            },
            {
              "internalType": "uint256",
              "name": "priceCurrency",
              "type": "uint256"
            },
            {
              "internalType": "uint256",
              "name": "time",
              "type": "uint256"
            }
          ],
          "internalType": "struct P2P.SellerList",
          "name": "listing",
          "type": "tuple"
        }
      ],
      "stateMutability": "view",
      "type": "function"
    },
    {
      "inputs": [],
      "name": "listingCount",
      "outputs": [
        {
          "internalType": "uint256",
          "name": "",
          "type": "uint256"
        }
      ],
      "stateMutability": "view",
      "type": "function"
    },
    {
      "inputs": [
        {
          "internalType": "uint256",
          "name": "",
          "type": "uint256"
        }
      ],
      "name": "listings",
      "outputs": [
        {
          "internalType": "address payable",
          "name": "seller",
          "type": "address"
        },
        {
          "internalType": "address",
          "name": "tokenAddress",
          "type": "address"
        },
        {
          "internalType": "uint256",
          "name": "listId",
          "type": "uint256"
        },
        {
          "internalType": "uint256",
          "name": "amount",
          "type": "uint256"
        },
        {
          "internalType": "uint256",
          "name": "locked",
          "type": "uint256"
        },
        {
          "internalType": "uint256",
          "name": "price",
          "type": "uint256"
        },
        {
          "internalType": "uint256",
          "name": "priceCurrency",
          "type": "uint256"
        },
        {
          "internalType": "uint256",
          "name": "time",
          "type": "uint256"
        }
      ],
      "stateMutability": "view",
      "type": "function"
    },
    {
      "inputs": [
        {
          "internalType": "uint256",
          "name": "",
          "type": "uint256"
        },
        {
          "internalType": "uint256",
          "name": "",
          "type": "uint256"
        }
      ],
      "name": "listingsByCurrency",
      "outputs": [
        {
          "internalType": "uint256",
          "name": "",
          "type": "uint256"
        }
      ],
      "stateMutability": "view",
      "type": "function"
    },
    {
      "inputs": [
        {
          "internalType": "uint256",
          "name": "id",
          "type": "uint256"
        }
      ],
      "name": "markAsPaid",
      "outputs": [],
      "stateMutability": "nonpayable",
      "type": "function"
    },
    {
      "inputs": [
        {
          "internalType": "uint256",
          "name": "",
          "type": "uint256"
        }
      ],
      "name": "orders",
      "outputs": [
        {
          "internalType": "address payable",
          "name": "buyer",
          "type": "address"
        },
        {
          "internalType": "address payable",
          "name": "seller",
          "type": "address"
        },
        {
          "internalType": "address",
          "name": "tokenAddress",
          "type": "address"
        },
        {
          "internalType": "bool",
          "name": "fulfilled",
          "type": "bool"
        },
        {
          "internalType": "bool",
          "name": "paid",
          "type": "bool"
        },
        {
          "internalType": "bool",
          "name": "cancelled",
          "type": "bool"
        },
        {
          "internalType": "bool",
          "name": "report",
          "type": "bool"
        },
        {
          "internalType": "uint256",
          "name": "amount",
          "type": "uint256"
        },
        {
          "internalType": "uint256",
          "name": "price",
          "type": "uint256"
        },
        {
          "internalType": "uint256",
          "name": "priceCurrency",
          "type": "uint256"
        },
        {
          "internalType": "uint256",
          "name": "orderId",
          "type": "uint256"
        },
        {
          "internalType": "string",
          "name": "buyerName",
          "type": "string"
        },
        {
          "internalType": "string",
          "name": "payOption",
          "type": "string"
        }
      ],
      "stateMutability": "view",
      "type": "function"
    },
    {
      "inputs": [],
      "name": "owner",
      "outputs": [
        {
          "internalType": "address",
          "name": "",
          "type": "address"
        }
      ],
      "stateMutability": "view",
      "type": "function"
    },
    {
      "inputs": [
        {
          "internalType": "address",
          "name": "",
          "type": "address"
        },
        {
          "internalType": "uint256",
          "name": "",
          "type": "uint256"
        }
      ],
      "name": "paymentsOfSeller",
      "outputs": [
        {
          "internalType": "string",
          "name": "appName",
          "type": "string"
        },
        {
          "internalType": "string",
          "name": "paymentInstruction",
          "type": "string"
        }
      ],
      "stateMutability": "view",
      "type": "function"
    },
    {
      "inputs": [
        {
          "internalType": "string",
          "name": "_name",
          "type": "string"
        },
        {
          "internalType": "string",
          "name": "_email",
          "type": "string"
        },
        {
          "components": [
            {
              "internalType": "string",
              "name": "appName",
              "type": "string"
            },
            {
              "internalType": "string",
              "name": "paymentInstruction",
              "type": "string"
            }
          ],
          "internalType": "struct P2P.paymentOption[]",
          "name": "_payments",
          "type": "tuple[]"
        }
      ],
      "name": "register",
      "outputs": [],
      "stateMutability": "nonpayable",
      "type": "function"
    },
    {
      "inputs": [
        {
          "internalType": "uint256",
          "name": "id",
          "type": "uint256"
        }
      ],
      "name": "release",
      "outputs": [],
      "stateMutability": "nonpayable",
      "type": "function"
    },
    {
      "inputs": [],
      "name": "renounceOwnership",
      "outputs": [],
      "stateMutability": "nonpayable",
      "type": "function"
    },
    {
      "inputs": [
        {
          "internalType": "address",
          "name": "tokenAddress",
          "type": "address"
        },
        {
          "internalType": "uint256",
          "name": "amount",
          "type": "uint256"
        },
        {
          "internalType": "uint256",
          "name": "price",
          "type": "uint256"
        },
        {
          "internalType": "uint256",
          "name": "currency",
          "type": "uint256"
        }
      ],
      "name": "sellToken",
      "outputs": [],
      "stateMutability": "payable",
      "type": "function"
    },
    {
      "inputs": [
        {
          "internalType": "address",
          "name": "seller",
          "type": "address"
        }
      ],
      "name": "sellerPayments",
      "outputs": [
        {
          "components": [
            {
              "internalType": "string",
              "name": "appName",
              "type": "string"
            },
            {
              "internalType": "string",
              "name": "paymentInstruction",
              "type": "string"
            }
          ],
          "internalType": "struct P2P.paymentOption[]",
          "name": "",
          "type": "tuple[]"
        }
      ],
      "stateMutability": "view",
      "type": "function"
    },
    {
      "inputs": [
        {
          "internalType": "address",
          "name": "",
          "type": "address"
        }
      ],
      "name": "sellers",
      "outputs": [
        {
          "internalType": "address payable",
          "name": "seller",
          "type": "address"
        },
        {
          "internalType": "string",
          "name": "name",
          "type": "string"
        },
        {
          "internalType": "string",
          "name": "email",
          "type": "string"
        }
      ],
      "stateMutability": "view",
      "type": "function"
    },
    {
      "inputs": [
        {
          "internalType": "address",
          "name": "",
          "type": "address"
        },
        {
          "internalType": "address",
          "name": "",
          "type": "address"
        },
        {
          "internalType": "uint256",
          "name": "",
          "type": "uint256"
        }
      ],
      "name": "tokenSellerList",
      "outputs": [
        {
          "internalType": "address payable",
          "name": "seller",
          "type": "address"
        },
        {
          "internalType": "address",
          "name": "tokenAddress",
          "type": "address"
        },
        {
          "internalType": "uint256",
          "name": "listId",
          "type": "uint256"
        },
        {
          "internalType": "uint256",
          "name": "amount",
          "type": "uint256"
        },
        {
          "internalType": "uint256",
          "name": "locked",
          "type": "uint256"
        },
        {
          "internalType": "uint256",
          "name": "price",
          "type": "uint256"
        },
        {
          "internalType": "uint256",
          "name": "priceCurrency",
          "type": "uint256"
        },
        {
          "internalType": "uint256",
          "name": "time",
          "type": "uint256"
        }
      ],
      "stateMutability": "view",
      "type": "function"
    },
    {
      "inputs": [
        {
          "internalType": "address",
          "name": "newOwner",
          "type": "address"
        }
      ],
      "name": "transferOwnership",
      "outputs": [],
      "stateMutability": "nonpayable",
      "type": "function"
    },
    {
      "inputs": [
        {
          "internalType": "address",
          "name": "",
          "type": "address"
        },
        {
          "internalType": "uint256",
          "name": "",
          "type": "uint256"
        }
      ],
      "name": "userRequests",
      "outputs": [
        {
          "internalType": "address payable",
          "name": "buyer",
          "type": "address"
        },
        {
          "internalType": "address payable",
          "name": "seller",
          "type": "address"
        },
        {
          "internalType": "address",
          "name": "tokenAddress",
          "type": "address"
        },
        {
          "internalType": "bool",
          "name": "fulfilled",
          "type": "bool"
        },
        {
          "internalType": "bool",
          "name": "paid",
          "type": "bool"
        },
        {
          "internalType": "bool",
          "name": "cancelled",
          "type": "bool"
        },
        {
          "internalType": "bool",
          "name": "report",
          "type": "bool"
        },
        {
          "internalType": "uint256",
          "name": "amount",
          "type": "uint256"
        },
        {
          "internalType": "uint256",
          "name": "price",
          "type": "uint256"
        },
        {
          "internalType": "uint256",
          "name": "priceCurrency",
          "type": "uint256"
        },
        {
          "internalType": "uint256",
          "name": "orderId",
          "type": "uint256"
        },
        {
          "internalType": "string",
          "name": "buyerName",
          "type": "string"
        },
        {
          "internalType": "string",
          "name": "payOption",
          "type": "string"
        }
      ],
      "stateMutability": "view",
      "type": "function"
    }
  ],
  "transactionHash": "0xaf36a36b82151959acdd69f9acecd2ab440cf98ba5d18d3560ce9c88145d4e77",
  "args": [],
  "numDeployments": 1,
  "solcInputHash": "cf4bd1772206cfea8e56c695d3f8da82",
  "bytecode": "0x6080806040523461005b5760008054336001600160a01b0319821681178355916001600160a01b03909116907f8be0079c531659141344cd1fd0a4f28419497f9722a3daafe3b4186f6b6457e09080a3612d2790816100618239f35b600080fdfe6080604052600436101561001257600080fd5b60003560e01c80631b0603fd14611a74578063263cb6b614611a2c57806337bdc99b146117d75780633ddd9cfa1461179757806341b222d3146117125780636c6dbbef1461110e5780636d47ab72146110955780637021cafe14610fed578063715018a614610f945780637584b99b14610be65780637799c71114610b13578063804e44f314610a2c57806388bea6ee14610a005780638da5cb5b146109d75780639cf11c1c14610951578063a85c38ef146108b6578063a9b07c2614610898578063b79e8ec714610774578063c3c5a54714610737578063d09ef24114610691578063d44a67cb14610560578063d90cef37146104d0578063db58468f146103d6578063de74e57b14610242578063f2fde38b1461017e5763f7312ffd1461013a57600080fd5b3461017957610148366125bd565b90600052600a602052604060002080548210156101795760209161016b9161260d565b90546040519160031b1c8152f35b600080fd5b346101795760203660031901126101795761019761224b565b61019f612625565b6001600160a01b039081169081156101ee57600054826001600160601b0360a01b821617600055167f8be0079c531659141344cd1fd0a4f28419497f9722a3daafe3b4186f6b6457e0600080a3005b60405162461bcd60e51b815260206004820152602660248201527f4f776e61626c653a206e6577206f776e657220697320746865207a65726f206160448201526564647265737360d01b6064820152608490fd5b346101795760203660031901126101795760043560095481101561017957600960005260031b7f6e1540171b6c0c960b71a7020d9f60077f6af931a8bbf590da0223dacf75c7af8101547f6e1540171b6c0c960b71a7020d9f60077f6af931a8bbf590da0223dacf75c7b08201547f6e1540171b6c0c960b71a7020d9f60077f6af931a8bbf590da0223dacf75c7b18301547f6e1540171b6c0c960b71a7020d9f60077f6af931a8bbf590da0223dacf75c7b28401547f6e1540171b6c0c960b71a7020d9f60077f6af931a8bbf590da0223dacf75c7b38501547f6e1540171b6c0c960b71a7020d9f60077f6af931a8bbf590da0223dacf75c7b48601547f6e1540171b6c0c960b71a7020d9f60077f6af931a8bbf590da0223dacf75c7b58701547f6e1540171b6c0c960b71a7020d9f60077f6af931a8bbf590da0223dacf75c7b690970154604080516001600160a01b039889168152979096166020880152948601939093526060850191909152608084015260a083015260c082019290925260e081019190915261010090f35b0390f35b34610179576103e4366125bd565b60095481818410156104c7575b90806103fe8593846126e5565b116104b6575b505061040f8161248e565b9161041d60405193846121c8565b818352601f1961042c8361248e565b0160005b81811061049f575050805b61044583836126e5565b8110156104915761048a8161048461045f610445946125d3565b5061047361046d87856129a3565b9161293d565b61047d828a6126d1565b52876126d1565b50612770565b905061043b565b604051806103d28682612574565b6020906104aa612cb3565b82828801015201610430565b6104c092506129a3565b8183610404565b600093506103f1565b34610179576000366003190112610179576009546104ed8161248e565b6104fa60405191826121c8565b81815260209182820160096000527f6e1540171b6c0c960b71a7020d9f60077f6af931a8bbf590da0223dacf75c7af936000915b83831061054357604051806103d28782612574565b6008826001926105528961293d565b81520196019201919461052e565b3461017957606036600319011261017957600435602435604435918190839281600052600a9060209582875260406000205480921015610688575b6105a68291866126e5565b11610674575b506105b68461248e565b916105c460405193846121c8565b8483526105d08561248e565b83870190601f1901368237845b6105e787876126e5565b8110156106315761062a6105e79184600052858a5261060a81604060002061260d565b90549060031b1c61062461061e8a846129a3565b896126d1565b52612770565b90506105dd565b878583604051928392818401908285525180915260408401929160005b82811061065d57505050500390f35b83518552869550938101939281019260010161064e565b61068191945083906129a3565b92856105ac565b6000945061059b565b346101795760203660031901126101795760606101806040516106b381612175565b60008152600060208201526000604082015260008382015260006080820152600060a0820152600060c0820152600060e082015260006101008201526000610120820152600061014082015282610160820152015260043560005260076020526103d26107236040600020612bae565b6040519182916020835260208301906124a5565b346101795760203660031901126101795760206001600160a01b038061075b61224b565b1660005260038252604060002054161515604051908152f35b3461017957602080600319360112610179576001600160a01b0361079661224b565b16600052600581526040600020908154916107b08361248e565b926107be60405194856121c8565b8084528284018092600052836000206000915b8383106108585750505050604051918083019381845251809452604083019360408160051b85010192916000955b82871061080c5785850386f35b909192938280610848600193603f198a8203018652885190836108388351604084526040840190612373565b9201519084818403910152612373565b96019201960195929190926107ff565b60028660019260409998995161086d81612191565b610876866122cd565b81526108838587016122cd565b838201528152019201920191909594956107d1565b34610179576000366003190112610179576020600954604051908152f35b34610179576020366003190112610179576004356000526007602052604060002060018060a01b03906103d282825416836001840154169260028101549360038201546004830154600584015491600685015493610922600861091b600789016122cd565b97016122cd565b966040519a8a8c60ff819d60b81c169460ff8360b01c169460ff8460a81c169460ff8560a01c169416926123b3565b346101795760403660031901126101795761096a61224b565b6001600160a01b0316600090815260056020526040902080546024359190821015610179576109c99161099c91612558565b506103d26109b560016109ae846122cd565b93016122cd565b604051938493604085526040850190612373565b908382036020850152612373565b34610179576000366003190112610179576000546040516001600160a01b039091168152602090f35b3461017957602036600319011261017957600435600052600a6020526020604060002054604051908152f35b3461017957602080600319360112610179576001600160a01b03610a4e61224b565b1660005260068152604060002090815491610a688361248e565b92610a7660405194856121c8565b8084528284018092600052836000206000915b838310610af05750505050604051918083019381845251809452604083019360408160051b85010192916000955b828710610ac45785850386f35b909192938280610ae0600193603f198a820301865288516124a5565b9601920196019592919092610ab7565b600986600192610b02859a999a612bae565b815201920192019190959495610a89565b3461017957606036600319011261017957610b2c61224b565b6001600160a01b03906024358281169190829003610179578216600052600460205260406000209060005260205260406000206044356000526020526040600020906103d281835416916001840154169260028101549060038101546004820154600583015491600760068501549401549460405198899889949198979693909260e0969361010087019a60018060a01b03809216885216602087015260408601526060850152608084015260a083015260c08201520152565b608036600319011261017957610bfa61224b565b6024803591604435916001600160a01b0391821691906064359083610f3257853403610eee575b3360005260209260048452604060002085600052845260406000208360005284523381604060002054161415600014610e105760076002549160405192610c67846121ac565b3384528684019088825260408501908152606085018b815260808601906000825260a08701928c845260c08801948a865260e08901964288523360005260048d528d6040600020906000528d5260406000208c6000528d528060406000209a5116906001600160601b0360a01b91828c5416178b5560018b019251169082541617905551600288015551600387015551600486015551600585015551600684015551910155336000526004835260406000208460005283526040600020826000528352604060002060095490600160401b9182811015610dfb5790610d55826001610d5b94016009556125d3565b906126f2565b82600052600a8452604060002060025492815492831015610de7575092606092610db0837f0fb77a047f6be8cceda3dcb198d6969a414fae247664b0d1d60dbf9334823e14966001610de29c9601815561260d565b819291549060031b600019811b9283911b169119161790556002549687956040519384528301526040820152a3612770565b600255005b634e487b7160e01b60009081526041600452fd5b83634e487b7160e01b60005260416004526000fd5b50509192610eec94336000526004835260406000208560005283526040600020846000528352610e4960036040600020019182546126e5565b9055336000526004825260406000208460005282526040600020836000528252600560406000200155336000526004815260406000208360005281526040600020826000528152426007604060002001553360005260048152604060002083600052815260406000208260005281526040600020923360005260048252604060002090600052815260406000209160005252610d556002604060002001546125d3565b005b606490601e6040519162461bcd60e51b8352602060048401528201527f596f75206d7573742073656e642074686520657861637420616d6f756e7400006044820152fd5b6040516323b872dd60e01b602082015233828201523060448201526064808201889052815260a081016001600160401b03811182821017610f7f57604052610f7a908561277f565b610c21565b82634e487b7160e01b60005260416004526000fd5b3461017957600036600319011261017957610fad612625565b600080546001600160a01b0319811682556001600160a01b03167f8be0079c531659141344cd1fd0a4f28419497f9722a3daafe3b4186f6b6457e08280a3005b3461017957602036600319011261017957600435600081815260076020526040902080546001600160a01b031633036110585760ff600261103492015460a01c1615612c67565b6000908152600760205260409020600201805460ff60a81b1916600160a81b179055005b60405162461bcd60e51b81526020600482015260156024820152742cb7ba9030b932903737ba103a343290313abcb2b960591b6044820152606490fd5b34610179576020366003190112610179576001600160a01b03806110b761224b565b1660005260036020526040600020908154166103d26110e460026110dd600186016122cd565b94016122cd565b6111006040519485948552606060208601526060850190612373565b908382036040850152612373565b34610179576060366003190112610179576004356001600160401b0381116101795761113e903690600401612204565b6024356001600160401b0381116101795761115d903690600401612204565b906001600160401b03604435116101795736602360443501121561017957604435600401359061118c8261248e565b9161119a60405193846121c8565b80835260208301903660248260051b60443501011161017957602460443501915b60248260051b60443501018310611672575050336000908152600360205260409020546001600160a01b0392915082166116395760405193606085018581106001600160401b0382111761149c576040523385526020850191825260408501523360005260036020526040600020918451166001600160601b0360a01b835416178255519283516001600160401b03811161149c5761126a816112616001860154612293565b6001860161267d565b6020601f82116001146115c657819060409495966000926115bb575b50508160011b916000199060031b1c19161760018401555b01518051906001600160401b03821161149c576112cb826112c26002860154612293565b6002860161267d565b602090601f831160011461154b576002929160009183611540575b50508160011b916000199060031b1c1916179101555b60005b815160ff821690811015610eec57336000526005602052611325604060002091846126d1565b51908054600160401b81101561149c5761134491600182018155612558565b91909161152a5780518051906001600160401b03821161149c576113728261136c8654612293565b8661267d565b602090601f83116001146114bd576020939291600091836114b2575b50508160011b916000199060031b1c19161783555b01518051906001600160401b03821161149c576113c7826112616001860154612293565b602090601f831160011461142c576001929160009183611421575b5050600019600383901b1c191690821b179101555b60ff80911690811461140b576001016112ff565b634e487b7160e01b600052601160045260246000fd5b0151905086806113e2565b906001840160005260206000209160005b601f19851681106114845750918391600194938594601f1981161061146b575b505050811b019101556113f7565b015160001960f88460031b161c1916905586808061145d565b9192602060018192868501518155019401920161143d565b634e487b7160e01b600052604160045260246000fd5b01519050878061138e565b908460005260206000209160005b601f1985168110611512575091839160019360209695601f198116106114f9575b505050811b0183556113a3565b015160001960f88460031b161c191690558780806114ec565b919260206001819286850151815501940192016114cb565b634e487b7160e01b600052600060045260246000fd5b0151905085806112e6565b906002840160005260206000209160005b601f19851681106115a35750918391600193600295601f1981161061158a575b505050811b019101556112fc565b015160001960f88460031b161c1916905585808061157c565b9192602060018192868501518155019401920161155c565b015190508680611286565b6001840160005260206000209560005b601f198416811061162157509582916040959697600194601f19811610611608575b505050811b01600184015561129e565b015160001960f88460031b161c191690558680806115f8565b828201518855600190970196602092830192016115d6565b60405162461bcd60e51b8152602060048201526011602482015270105b1c9958591e549959da5cdd195c9959607a1b6044820152606490fd5b8235906001600160401b03821161017957604060443583013603602319011261017957604051916116a283612191565b6001600160401b0360248260443501013511610179576116ce3660246044358401818101350101612204565b83526044818135010135916001600160401b03831161017957602493611701602094938686953692604435010101612204565b8382015281520193019290506111bb565b346101795760403660031901126101795761172b61224b565b6001600160a01b0390811660009081526006602052604090208054602435908110156101795761175a91612261565b506103d282825416836001840154169260028101549360038201546004830154600584015491600685015493610922600861091b600789016122cd565b34610179576020366003190112610179576117b0612cb3565b506101006117c86117c26004356125d3565b5061293d565b6117d56040518092612439565bf35b3461017957602080600319360112610179576004359081600052600781526118026040600020612bae565b81810180519193916001600160a01b039190821633036119ee5761182a606086015115612c67565b600160808601511515036119b457819060e08601936118ec855192848151166000526004885260406000209360408a01948686511660005289526040600020906101208b019182516000528a5261188a60046040600020019182546129a3565b905585825116600052600489526040600020868651166000528952604060002081516000528952856040600020925116600052600489526040600020868651166000528952604060002090516000528852610d556002604060002001546125d3565b60009081526007865260409020600201805460ff60a01b1916600160a01b1790555116938461196e57600093945083928392839251169051905af161192f612870565b501561193757005b6064906040519062461bcd60e51b82526004820152601060248201526f14d95b99105b5bdd5b9d11985a5b195960821b6044820152fd5b51169051906040519263a9059cbb60e01b90840152602483015260448201526044815260808101918183106001600160401b0384111761149c57610eec9260405261277f565b60405162461bcd60e51b815260048101859052601260248201527113dc99195c88139bdd081c185a59081e595d60721b6044820152606490fd5b60405162461bcd60e51b81526004810185905260166024820152752cb7ba9030b932903737ba103a34329039b2b63632b960511b6044820152606490fd5b3461017957604036600319011261017957611a4561224b565b6001600160a01b0390811660009081526008602052604090208054602435908110156101795761175a91612261565b34610179576080366003190112610179576044356001600160401b03811161017957611aa4903690600401612204565b6064356001600160401b03811161017957611ac3903690600401612204565b90611acf6004356125d3565b5090602491600383359101541061213d57611aeb6004356125d3565b5060018060a01b0390541660005260046020526040600020611b0e6004356125d3565b506001808060a01b039101541660005260205260406000206006611b336004356125d3565b500154600052602052611b49604060002061293d565b80519093906001600160a01b0316156121065783516001600160a01b0316600090815260066020526040902090611b816004356125d3565b50546001600160a01b031692611b986004356125d3565b5060019081015460a088015160c08901519254604051979093926001600160a01b031690611bc589612175565b338952602089015260408801526000606088015260006080880152600060a0880152600060c0880152873560e0880152610100870152610120860152610140850152610160840152610180830152805490600160401b821015610dfb5790611c3291600182018155612261565b919091611fcd57805182546001600160a01b03199081166001600160a01b03928316178455602083015160018501805490921690831617905560408201516002840180546060850151608086015160a08088015160c089015160ff60b81b90151560b81b166001600160c01b0319909516969097169590951791151590941b60ff60a01b161760ff60a81b93151560a81b939093169290921760ff60b01b93151560b01b939093169290921717905560e081015160038301556101008101516004830155610120810151600583015561014081015160068301556101608101518051906001600160401b0382116120f157611d3d82611d346007870154612293565b6007870161267d565b602090601f831160011461207d5761018093929160009183612072575b50508160011b916000199060031b1c19161760078401555b01518051906001600160401b038211610dfb57611d9f82611d966008860154612293565b6008860161267d565b602090601f8311600114612002576008929160009183611ff7575b50508160011b916000199060031b1c1916179101555b81516001600160a01b039081166000908152600660205260408082208551909316825290205460001991828201918211611fe257611e2791611e1191612261565b5060015460005260076020526040600020612a88565b33600052600860205260406000209060018060a01b038451166000526006602052604060002060018060a01b03855116600052604060002054918201918211611fe25790611e7491612261565b5090805490600160401b821015610dfb5790611e9591600182018155612261565b611fcd5790611ea391612a88565b60018060a01b038251166000526004602052604060002090602083019160018060a01b03835116600052602052604060002060c08401516000526020526003604060002001611ef4823582546129a3565b905560018060a01b038351166000526004602052604060002060018060a01b03835116600052602052604060002060c0840151600052602052611f416004604060002001913582546126e5565b905560018060a01b03825116600052600460205260406000209060018060a01b0390511660005260205260c06040600020910151600052602052611f8e6040600020610d556004356125d3565b611fc8600154806040513381527fdd1b62632aaf0a7d57bcf1841f0e14c27b2af16514751bbaeb0809f2ab07efdb602060043592a3612770565b600155005b82634e487b7160e01b60005260006004526000fd5b83634e487b7160e01b60005260116004526000fd5b015190508680611dba565b906008840160005260206000209160005b601f198516811061205a5750918391600193600895601f19811610612041575b505050811b01910155611dd0565b015160001960f88460031b161c19169055868080612033565b91926020600181928685015181550194019201612013565b015190508780611d5a565b906007850160005260206000209160005b601f19851681106120d957509183916001936101809695601f198116106120c0575b505050811b016007840155611d72565b015160001960f88460031b161c191690558780806120b0565b9192602060018192868501518155019401920161208e565b84634e487b7160e01b60005260416004526000fd5b60405162461bcd60e51b8152602060048201526010818501526f14d95b1b195c881b9bdd08199bdd5b9960821b6044820152606490fd5b60405162461bcd60e51b815260206004820152601181840152704e6f7420656e6f75676820746f6b656e7360781b6044820152606490fd5b6101a081019081106001600160401b0382111761149c57604052565b604081019081106001600160401b0382111761149c57604052565b61010081019081106001600160401b0382111761149c57604052565b90601f801991011681019081106001600160401b0382111761149c57604052565b6001600160401b03811161149c57601f01601f191660200190565b81601f820112156101795780359061221b826121e9565b9261222960405194856121c8565b8284526020838301011161017957816000926020809301838601378301015290565b600435906001600160a01b038216820361017957565b805482101561227d576000526009602060002091020190600090565b634e487b7160e01b600052603260045260246000fd5b90600182811c921680156122c3575b60208310146122ad57565b634e487b7160e01b600052602260045260246000fd5b91607f16916122a2565b90604051918260008254926122e184612293565b908184526001948581169081600014612350575060011461230d575b505061230b925003836121c8565b565b9093915060005260209081600020936000915b81831061233857505061230b935082010138806122fd565b85548884018501529485019487945091830191612320565b91505061230b94506020925060ff191682840152151560051b82010138806122fd565b919082519283825260005b84811061239f575050826000602080949584010152601f8019910116010190565b60208183018101518483018201520161237e565b9b989592916124369d9b9895928d60206124279d9a979460018060a01b0394858092168452169101521660408d0152151560608c0152151560808b0152151560a08a0152151560c089015260e08801526101008701526101208601526101408501526101a080610160860152840190612373565b91610180818403910152612373565b90565b60e0809160018060a01b03808251168552602082015116602085015260408101516040850152606081015160608501526080810151608085015260a081015160a085015260c081015160c08501520151910152565b6001600160401b03811161149c5760051b60200190565b906124369160018060a01b03808251168352806020830151166020840152604082015116604083015260608101511515606083015260808101511515608083015260a0810151151560a083015260c0810151151560c083015260e081015160e083015261010080820151908301526101208082015190830152610140808201519083015261254461016080830151906101a08091860152840190612373565b916101808092015191818403910152612373565b805482101561227d5760005260206000209060011b0190600090565b6020908160408183019282815285518094520193019160005b82811061259b575050505090565b9091929382610100826125b16001948951612439565b0195019392910161258d565b6040906003190112610179576004359060243590565b60095481101561227d57600960005260031b7f6e1540171b6c0c960b71a7020d9f60077f6af931a8bbf590da0223dacf75c7af0190600090565b805482101561227d5760005260206000200190600090565b6000546001600160a01b0316330361263957565b606460405162461bcd60e51b815260206004820152602060248201527f4f776e61626c653a2063616c6c6572206973206e6f7420746865206f776e65726044820152fd5b90601f811161268b57505050565b600091825260208220906020601f850160051c830194106126c7575b601f0160051c01915b8281106126bc57505050565b8181556001016126b0565b90925082906126a7565b805182101561227d5760209160051b010190565b9190820180921161140b57565b919061152a57808203612703575050565b6007809160018060a01b03808254166001600160601b0360a01b908187541617865560018601916001840154169082541617905560028101546002850155600381015460038501556004810154600485015560058101546005850155600681015460068501550154910155565b600019811461140b5760010190565b60018060a01b0316906127de60405161279781612191565b6020938482527f5361666545524332303a206c6f772d6c6576656c2063616c6c206661696c6564858301526000808587829751910182855af16127d8612870565b916128a0565b8051806127ec575b50505050565b8184918101031261286c57820151908115918215036128695750612812578080806127e6565b6084906040519062461bcd60e51b82526004820152602a60248201527f5361666545524332303a204552433230206f7065726174696f6e20646964206e6044820152691bdd081cdd58d8d9595960b21b6064820152fd5b80fd5b5080fd5b3d1561289b573d90612881826121e9565b9161288f60405193846121c8565b82523d6000602084013e565b606090565b9192901561290257508151156128b4575090565b3b156128bd5790565b60405162461bcd60e51b815260206004820152601d60248201527f416464726573733a2063616c6c20746f206e6f6e2d636f6e74726163740000006044820152606490fd5b8251909150156129155750805190602001fd5b60405162461bcd60e51b815260206004820152908190612939906024830190612373565b0390fd5b9060405161294a816121ac565b82546001600160a01b0390811682526001840154166020820152600283015460408201526003830154606082015260048301546080820152600583015460a0820152600683015460c082015260079092015460e0830152565b9190820391821161140b57565b90808214612a84576129c28154612293565b906001600160401b03821161149c5781906129e18261136c8654612293565b600090601f8311600114612a1857600092612a0d575b50508160011b916000199060031b1c1916179055565b0154905038806129f7565b81526020808220858352818320935090601f1985169083905b828210612a6b575050908460019594939210612a52575b505050811b019055565b015460001960f88460031b161c19169055388080612a48565b8495819295850154815560018091019601940190612a31565b5050565b818103612a93575050565b60088061230b93612b6e60018060a01b0360ff81845416916001600160601b0360a01b92838954161788556001880181600187015416848254161790556002880192600286019182541690845416178355612b0c82825460a01c16849081549060ff60a01b90151560a01b169060ff60a01b1916179055565b8054835460ff60a81b191660a891821c8416151590911b60ff60a81b161783558054835460ff60b01b191660b091821c8416151590911b60ff60b01b1617835554825460ff60b81b191660b891821c929092161515901b60ff60b81b16179055565b60038101546003850155600481015460048501556005810154600585015560068101546006850155612ba660078201600786016129b0565b0191016129b0565b90604051612bbb81612175565b610180612c626008839560ff60018060a01b0380835416875280600184015416602088015260028301549081166040880152818160a01c1615156060880152818160a81c1615156080880152818160b01c16151560a088015260b81c16151560c0860152600381015460e0860152600481015461010086015260058101546101208601526006810154610140860152612c56600782016122cd565b610160860152016122cd565b910152565b15612c6e57565b60405162461bcd60e51b815260206004820152601760248201527f4f7264657220416c72656164792066756c66696c6c65640000000000000000006044820152606490fd5b60405190612cc0826121ac565b8160e06000918281528260208201528260408201528260608201528260808201528260a08201528260c0820152015256fea264697066735822122064e800a6bf1c8810f8a167c873ab42c009942079b566dae177355bbc0e9d348e64736f6c63430008110033",
  "devdoc": {
    "kind": "dev",
    "methods": {
      "owner()": {
        "details": "Returns the address of the current owner."
      },
      "renounceOwnership()": {
        "details": "Leaves the contract without owner. It will not be possible to call `onlyOwner` functions anymore. Can only be called by the current owner. NOTE: Renouncing ownership will leave the contract without an owner, thereby removing any functionality that is only available to the owner."
      },
      "transferOwnership(address)": {
        "details": "Transfers ownership of the contract to a new account (`newOwner`). Can only be called by the current owner."
      }
    },
    "version": 1
  },
  "userdoc": {
    "kind": "user",
    "methods": {},
    "version": 1
  },
  "storageLayout": {
    "storage": [
      {
        "astId": 7,
        "contract": "src/P2P.sol:P2P",
        "label": "_owner",
        "offset": 0,
        "slot": "0",
        "type": "t_address"
      },
      {
        "astId": 10899,
        "contract": "src/P2P.sol:P2P",
        "label": "orderId",
        "offset": 0,
        "slot": "1",
        "type": "t_uint256"
      },
      {
        "astId": 10901,
        "contract": "src/P2P.sol:P2P",
        "label": "listId",
        "offset": 0,
        "slot": "2",
        "type": "t_uint256"
      },
      {
        "astId": 10962,
        "contract": "src/P2P.sol:P2P",
        "label": "sellers",
        "offset": 0,
        "slot": "3",
        "type": "t_mapping(t_address,t_struct(Seller)10913_storage)"
      },
      {
        "astId": 10971,
        "contract": "src/P2P.sol:P2P",
        "label": "tokenSellerList",
        "offset": 0,
        "slot": "4",
        "type": "t_mapping(t_address,t_mapping(t_address,t_mapping(t_uint256,t_struct(SellerList)10957_storage)))"
      },
      {
        "astId": 10977,
        "contract": "src/P2P.sol:P2P",
        "label": "paymentsOfSeller",
        "offset": 0,
        "slot": "5",
        "type": "t_mapping(t_address,t_array(t_struct(paymentOption)10906_storage)dyn_storage)"
      },
      {
        "astId": 10983,
        "contract": "src/P2P.sol:P2P",
        "label": "buyRequests",
        "offset": 0,
        "slot": "6",
        "type": "t_mapping(t_address,t_array(t_struct(buyRequest)10940_storage)dyn_storage)"
      },
      {
        "astId": 10988,
        "contract": "src/P2P.sol:P2P",
        "label": "orders",
        "offset": 0,
        "slot": "7",
        "type": "t_mapping(t_uint256,t_struct(buyRequest)10940_storage)"
      },
      {
        "astId": 10994,
        "contract": "src/P2P.sol:P2P",
        "label": "userRequests",
        "offset": 0,
        "slot": "8",
        "type": "t_mapping(t_address,t_array(t_struct(buyRequest)10940_storage)dyn_storage)"
      },
      {
        "astId": 10998,
        "contract": "src/P2P.sol:P2P",
        "label": "listings",
        "offset": 0,
        "slot": "9",
        "type": "t_array(t_struct(SellerList)10957_storage)dyn_storage"
      },
      {
        "astId": 11003,
        "contract": "src/P2P.sol:P2P",
        "label": "listingsByCurrency",
        "offset": 0,
        "slot": "10",
        "type": "t_mapping(t_uint256,t_array(t_uint256)dyn_storage)"
      }
    ],
    "types": {
      "t_address": {
        "encoding": "inplace",
        "label": "address",
        "numberOfBytes": "20"
      },
      "t_address_payable": {
        "encoding": "inplace",
        "label": "address payable",
        "numberOfBytes": "20"
      },
      "t_array(t_struct(SellerList)10957_storage)dyn_storage": {
        "base": "t_struct(SellerList)10957_storage",
        "encoding": "dynamic_array",
        "label": "struct P2P.SellerList[]",
        "numberOfBytes": "32"
      },
      "t_array(t_struct(buyRequest)10940_storage)dyn_storage": {
        "base": "t_struct(buyRequest)10940_storage",
        "encoding": "dynamic_array",
        "label": "struct P2P.buyRequest[]",
        "numberOfBytes": "32"
      },
      "t_array(t_struct(paymentOption)10906_storage)dyn_storage": {
        "base": "t_struct(paymentOption)10906_storage",
        "encoding": "dynamic_array",
        "label": "struct P2P.paymentOption[]",
        "numberOfBytes": "32"
      },
      "t_array(t_uint256)dyn_storage": {
        "base": "t_uint256",
        "encoding": "dynamic_array",
        "label": "uint256[]",
        "numberOfBytes": "32"
      },
      "t_bool": {
        "encoding": "inplace",
        "label": "bool",
        "numberOfBytes": "1"
      },
      "t_mapping(t_address,t_array(t_struct(buyRequest)10940_storage)dyn_storage)": {
        "encoding": "mapping",
        "key": "t_address",
        "label": "mapping(address => struct P2P.buyRequest[])",
        "numberOfBytes": "32",
        "value": "t_array(t_struct(buyRequest)10940_storage)dyn_storage"
      },
      "t_mapping(t_address,t_array(t_struct(paymentOption)10906_storage)dyn_storage)": {
        "encoding": "mapping",
        "key": "t_address",
        "label": "mapping(address => struct P2P.paymentOption[])",
        "numberOfBytes": "32",
        "value": "t_array(t_struct(paymentOption)10906_storage)dyn_storage"
      },
      "t_mapping(t_address,t_mapping(t_address,t_mapping(t_uint256,t_struct(SellerList)10957_storage)))": {
        "encoding": "mapping",
        "key": "t_address",
        "label": "mapping(address => mapping(address => mapping(uint256 => struct P2P.SellerList)))",
        "numberOfBytes": "32",
        "value": "t_mapping(t_address,t_mapping(t_uint256,t_struct(SellerList)10957_storage))"
      },
      "t_mapping(t_address,t_mapping(t_uint256,t_struct(SellerList)10957_storage))": {
        "encoding": "mapping",
        "key": "t_address",
        "label": "mapping(address => mapping(uint256 => struct P2P.SellerList))",
        "numberOfBytes": "32",
        "value": "t_mapping(t_uint256,t_struct(SellerList)10957_storage)"
      },
      "t_mapping(t_address,t_struct(Seller)10913_storage)": {
        "encoding": "mapping",
        "key": "t_address",
        "label": "mapping(address => struct P2P.Seller)",
        "numberOfBytes": "32",
        "value": "t_struct(Seller)10913_storage"
      },
      "t_mapping(t_uint256,t_array(t_uint256)dyn_storage)": {
        "encoding": "mapping",
        "key": "t_uint256",
        "label": "mapping(uint256 => uint256[])",
        "numberOfBytes": "32",
        "value": "t_array(t_uint256)dyn_storage"
      },
      "t_mapping(t_uint256,t_struct(SellerList)10957_storage)": {
        "encoding": "mapping",
        "key": "t_uint256",
        "label": "mapping(uint256 => struct P2P.SellerList)",
        "numberOfBytes": "32",
        "value": "t_struct(SellerList)10957_storage"
      },
      "t_mapping(t_uint256,t_struct(buyRequest)10940_storage)": {
        "encoding": "mapping",
        "key": "t_uint256",
        "label": "mapping(uint256 => struct P2P.buyRequest)",
        "numberOfBytes": "32",
        "value": "t_struct(buyRequest)10940_storage"
      },
      "t_string_storage": {
        "encoding": "bytes",
        "label": "string",
        "numberOfBytes": "32"
      },
      "t_struct(Seller)10913_storage": {
        "encoding": "inplace",
        "label": "struct P2P.Seller",
        "members": [
          {
            "astId": 10908,
            "contract": "src/P2P.sol:P2P",
            "label": "seller",
            "offset": 0,
            "slot": "0",
            "type": "t_address_payable"
          },
          {
            "astId": 10910,
            "contract": "src/P2P.sol:P2P",
            "label": "name",
            "offset": 0,
            "slot": "1",
            "type": "t_string_storage"
          },
          {
            "astId": 10912,
            "contract": "src/P2P.sol:P2P",
            "label": "email",
            "offset": 0,
            "slot": "2",
            "type": "t_string_storage"
          }
        ],
        "numberOfBytes": "96"
      },
      "t_struct(SellerList)10957_storage": {
        "encoding": "inplace",
        "label": "struct P2P.SellerList",
        "members": [
          {
            "astId": 10942,
            "contract": "src/P2P.sol:P2P",
            "label": "seller",
            "offset": 0,
            "slot": "0",
            "type": "t_address_payable"
          },
          {
            "astId": 10944,
            "contract": "src/P2P.sol:P2P",
            "label": "tokenAddress",
            "offset": 0,
            "slot": "1",
            "type": "t_address"
          },
          {
            "astId": 10946,
            "contract": "src/P2P.sol:P2P",
            "label": "listId",
            "offset": 0,
            "slot": "2",
            "type": "t_uint256"
          },
          {
            "astId": 10948,
            "contract": "src/P2P.sol:P2P",
            "label": "amount",
            "offset": 0,
            "slot": "3",
            "type": "t_uint256"
          },
          {
            "astId": 10950,
            "contract": "src/P2P.sol:P2P",
            "label": "locked",
            "offset": 0,
            "slot": "4",
            "type": "t_uint256"
          },
          {
            "astId": 10952,
            "contract": "src/P2P.sol:P2P",
            "label": "price",
            "offset": 0,
            "slot": "5",
            "type": "t_uint256"
          },
          {
            "astId": 10954,
            "contract": "src/P2P.sol:P2P",
            "label": "priceCurrency",
            "offset": 0,
            "slot": "6",
            "type": "t_uint256"
          },
          {
            "astId": 10956,
            "contract": "src/P2P.sol:P2P",
            "label": "time",
            "offset": 0,
            "slot": "7",
            "type": "t_uint256"
          }
        ],
        "numberOfBytes": "256"
      },
      "t_struct(buyRequest)10940_storage": {
        "encoding": "inplace",
        "label": "struct P2P.buyRequest",
        "members": [
          {
            "astId": 10915,
            "contract": "src/P2P.sol:P2P",
            "label": "buyer",
            "offset": 0,
            "slot": "0",
            "type": "t_address_payable"
          },
          {
            "astId": 10917,
            "contract": "src/P2P.sol:P2P",
            "label": "seller",
            "offset": 0,
            "slot": "1",
            "type": "t_address_payable"
          },
          {
            "astId": 10919,
            "contract": "src/P2P.sol:P2P",
            "label": "tokenAddress",
            "offset": 0,
            "slot": "2",
            "type": "t_address"
          },
          {
            "astId": 10921,
            "contract": "src/P2P.sol:P2P",
            "label": "fulfilled",
            "offset": 20,
            "slot": "2",
            "type": "t_bool"
          },
          {
            "astId": 10923,
            "contract": "src/P2P.sol:P2P",
            "label": "paid",
            "offset": 21,
            "slot": "2",
            "type": "t_bool"
          },
          {
            "astId": 10925,
            "contract": "src/P2P.sol:P2P",
            "label": "cancelled",
            "offset": 22,
            "slot": "2",
            "type": "t_bool"
          },
          {
            "astId": 10927,
            "contract": "src/P2P.sol:P2P",
            "label": "report",
            "offset": 23,
            "slot": "2",
            "type": "t_bool"
          },
          {
            "astId": 10929,
            "contract": "src/P2P.sol:P2P",
            "label": "amount",
            "offset": 0,
            "slot": "3",
            "type": "t_uint256"
          },
          {
            "astId": 10931,
            "contract": "src/P2P.sol:P2P",
            "label": "price",
            "offset": 0,
            "slot": "4",
            "type": "t_uint256"
          },
          {
            "astId": 10933,
            "contract": "src/P2P.sol:P2P",
            "label": "priceCurrency",
            "offset": 0,
            "slot": "5",
            "type": "t_uint256"
          },
          {
            "astId": 10935,
            "contract": "src/P2P.sol:P2P",
            "label": "orderId",
            "offset": 0,
            "slot": "6",
            "type": "t_uint256"
          },
          {
            "astId": 10937,
            "contract": "src/P2P.sol:P2P",
            "label": "buyerName",
            "offset": 0,
            "slot": "7",
            "type": "t_string_storage"
          },
          {
            "astId": 10939,
            "contract": "src/P2P.sol:P2P",
            "label": "payOption",
            "offset": 0,
            "slot": "8",
            "type": "t_string_storage"
          }
        ],
        "numberOfBytes": "288"
      },
      "t_struct(paymentOption)10906_storage": {
        "encoding": "inplace",
        "label": "struct P2P.paymentOption",
        "members": [
          {
            "astId": 10903,
            "contract": "src/P2P.sol:P2P",
            "label": "appName",
            "offset": 0,
            "slot": "0",
            "type": "t_string_storage"
          },
          {
            "astId": 10905,
            "contract": "src/P2P.sol:P2P",
            "label": "paymentInstruction",
            "offset": 0,
            "slot": "1",
            "type": "t_string_storage"
          }
        ],
        "numberOfBytes": "64"
      },
      "t_uint256": {
        "encoding": "inplace",
        "label": "uint256",
        "numberOfBytes": "32"
      }
    }
  }
}